{
  "contractName": "AccessLog",
  "abi": [
    {
      "inputs": [],
      "payable": false,
      "stateMutability": "nonpayable",
      "type": "constructor"
    },
    {
      "anonymous": false,
      "inputs": [
        {
          "indexed": false,
          "internalType": "address",
          "name": "caller",
          "type": "address"
        },
        {
          "indexed": false,
          "internalType": "uint256",
          "name": "file",
          "type": "uint256"
        }
      ],
      "name": "Log",
      "type": "event"
    },
    {
      "constant": false,
      "inputs": [
        {
          "internalType": "uint256",
          "name": "file",
          "type": "uint256"
        }
      ],
      "name": "log",
      "outputs": [],
      "payable": true,
      "stateMutability": "payable",
      "type": "function"
    }
  ],
  "bytecode": "0x6080604052348015600f57600080fd5b50336000806101000a81548173ffffffffffffffffffffffffffffffffffffffff021916908373ffffffffffffffffffffffffffffffffffffffff16021790555060ef8061005e6000396000f3fe608060405260043610601c5760003560e01c8063f82c50f1146021575b600080fd5b604a60048036036020811015603557600080fd5b8101908080359060200190929190505050604c565b005b7ff950957d2407bed19dc99b718b46b4ce6090c05589006dfb86fd22c34865b23e3382604051808373ffffffffffffffffffffffffffffffffffffffff1673ffffffffffffffffffffffffffffffffffffffff1681526020018281526020019250505060405180910390a15056fea265627a7a723158205e69ab279f322d5a02f6a15ad8b4d4816cce23794cb88c2ca15b1654ff08b72564736f6c63430005100032",
  "source": "pragma solidity >=0.4.21 <0.7.0;\n\ncontract AccessLog {\n  address private owner;\n\n  event Log(\n          address caller,\n          uint file\n          );\n\n  constructor() public {\n    owner = msg.sender;\n  }\n\n  modifier isOwner() {\n    require(msg.sender == owner);\n    _;\n  }\n\n\n  function log(uint file) public payable {\n      emit Log(msg.sender, file);\n  }\n}\n",
  "sourcePath": "/home/saccharide/git/healthshare/blockchain/contracts/AccessLog.sol",
  "compiler": {
    "name": "solc",
    "version": "0.5.16+commit.9c3226ce.Emscripten.clang"
  },
  "schemaVersion": "3.0.23",
  "updatedAt": "2020-03-18T19:48:40.195Z",
  "devdoc": {
    "methods": {}
  },
  "userdoc": {
    "methods": {}
  }
}