{
  "contractName": "AccessLog",
  "abi": [
    {
      "inputs": [],
      "payable": false,
      "stateMutability": "nonpayable",
      "type": "constructor"
    },
    {
      "anonymous": false,
      "inputs": [
        {
          "indexed": false,
          "internalType": "address",
          "name": "caller",
          "type": "address"
        },
        {
          "indexed": false,
          "internalType": "uint256",
          "name": "file",
          "type": "uint256"
        }
      ],
      "name": "Log",
      "type": "event"
    },
    {
      "constant": false,
      "inputs": [
        {
          "internalType": "string",
          "name": "_publicKey",
          "type": "string"
        }
      ],
      "name": "setPublicKey",
      "outputs": [],
      "payable": false,
      "stateMutability": "nonpayable",
      "type": "function"
    },
    {
      "constant": false,
      "inputs": [
        {
          "internalType": "string",
          "name": "username",
          "type": "string"
        },
        {
          "internalType": "string",
          "name": "birthday",
          "type": "string"
        },
        {
          "internalType": "string",
          "name": "_publicKey",
          "type": "string"
        }
      ],
      "name": "setPublicKeyWithName",
      "outputs": [],
      "payable": false,
      "stateMutability": "nonpayable",
      "type": "function"
    },
    {
      "constant": true,
      "inputs": [],
      "name": "getPublicKey",
      "outputs": [
        {
          "internalType": "string",
          "name": "",
          "type": "string"
        }
      ],
      "payable": false,
      "stateMutability": "view",
      "type": "function"
    },
    {
      "constant": true,
      "inputs": [
        {
          "internalType": "string",
          "name": "username",
          "type": "string"
        },
        {
          "internalType": "string",
          "name": "birthday",
          "type": "string"
        }
      ],
      "name": "getPublicKeyWithName",
      "outputs": [
        {
          "internalType": "string",
          "name": "",
          "type": "string"
        }
      ],
      "payable": false,
      "stateMutability": "view",
      "type": "function"
    },
    {
      "constant": true,
      "inputs": [
        {
          "internalType": "string",
          "name": "username",
          "type": "string"
        },
        {
          "internalType": "string",
          "name": "birthday",
          "type": "string"
        }
      ],
      "name": "getEthereumAdress",
      "outputs": [
        {
          "internalType": "address",
          "name": "",
          "type": "address"
        }
      ],
      "payable": false,
      "stateMutability": "view",
      "type": "function"
    },
    {
      "constant": false,
      "inputs": [
        {
          "internalType": "string",
          "name": "username",
          "type": "string"
        },
        {
          "internalType": "string",
          "name": "birthday",
          "type": "string"
        }
      ],
      "name": "setEthereumAdress",
      "outputs": [],
      "payable": false,
      "stateMutability": "nonpayable",
      "type": "function"
    },
    {
      "constant": true,
      "inputs": [
        {
          "internalType": "string",
          "name": "username",
          "type": "string"
        },
        {
          "internalType": "string",
          "name": "birthday",
          "type": "string"
        }
      ],
      "name": "getUserName",
      "outputs": [
        {
          "internalType": "uint256",
          "name": "",
          "type": "uint256"
        }
      ],
      "payable": false,
      "stateMutability": "pure",
      "type": "function"
    },
    {
      "constant": false,
      "inputs": [
        {
          "internalType": "string",
          "name": "fileName",
          "type": "string"
        }
      ],
      "name": "addFilename",
      "outputs": [],
      "payable": false,
      "stateMutability": "nonpayable",
      "type": "function"
    },
    {
      "constant": true,
      "inputs": [
        {
          "internalType": "address",
          "name": "_address",
          "type": "address"
        }
      ],
      "name": "getFiles",
      "outputs": [
        {
          "internalType": "string",
          "name": "",
          "type": "string"
        }
      ],
      "payable": false,
      "stateMutability": "view",
      "type": "function"
    },
    {
      "constant": false,
      "inputs": [
        {
          "internalType": "uint256",
          "name": "file",
          "type": "uint256"
        }
      ],
      "name": "log",
      "outputs": [],
      "payable": true,
      "stateMutability": "payable",
      "type": "function"
    },
    {
      "constant": true,
      "inputs": [
        {
          "internalType": "string",
          "name": "filename",
          "type": "string"
        }
      ],
      "name": "removeFile",
      "outputs": [],
      "payable": false,
      "stateMutability": "view",
      "type": "function"
    }
  ],
  "bytecode": "0x608060405234801561001057600080fd5b50336000806101000a81548173ffffffffffffffffffffffffffffffffffffffff021916908373ffffffffffffffffffffffffffffffffffffffff160217905550611db0806100606000396000f3fe60806040526004361061009c5760003560e01c80636f6fc077116100645780636f6fc077146106c3578063706c2ee21461078b578063ee51606614610963578063f1afe04d14610a2b578063f815d21414610af3578063f82c50f114610c925761009c565b80630b7211dd146100a15780632e3344521461021457806331896dba146102a4578063433bf37b146104035780635285c038146104cd575b600080fd5b3480156100ad57600080fd5b506101fe600480360360408110156100c457600080fd5b81019080803590602001906401000000008111156100e157600080fd5b8201836020820111156100f357600080fd5b8035906020019184600183028401116401000000008311171561011557600080fd5b91908080601f016020809104026020016040519081016040528093929190818152602001838380828437600081840152601f19601f8201169050808301925050505050505091929192908035906020019064010000000081111561017857600080fd5b82018360208201111561018a57600080fd5b803590602001918460018302840111640100000000831117156101ac57600080fd5b91908080601f016020809104026020016040519081016040528093929190818152602001838380828437600081840152601f19601f820116905080830192505050505050509192919290505050610cc0565b6040518082815260200191505060405180910390f35b34801561022057600080fd5b50610229610d92565b6040518080602001828103825283818151815260200191508051906020019080838360005b8381101561026957808201518184015260208101905061024e565b50505050905090810190601f1680156102965780820380516001836020036101000a031916815260200191505b509250505060405180910390f35b3480156102b057600080fd5b50610401600480360360408110156102c757600080fd5b81019080803590602001906401000000008111156102e457600080fd5b8201836020820111156102f657600080fd5b8035906020019184600183028401116401000000008311171561031857600080fd5b91908080601f016020809104026020016040519081016040528093929190818152602001838380828437600081840152601f19601f8201169050808301925050505050505091929192908035906020019064010000000081111561037b57600080fd5b82018360208201111561038d57600080fd5b803590602001918460018302840111640100000000831117156103af57600080fd5b91908080601f016020809104026020016040519081016040528093929190818152602001838380828437600081840152601f19601f820116905080830192505050505050509192919290505050610e71565b005b34801561040f57600080fd5b506104526004803603602081101561042657600080fd5b81019080803573ffffffffffffffffffffffffffffffffffffffff169060200190929190505050610ed0565b6040518080602001828103825283818151815260200191508051906020019080838360005b83811015610492578082015181840152602081019050610477565b50505050905090810190601f1680156104bf5780820380516001836020036101000a031916815260200191505b509250505060405180910390f35b3480156104d957600080fd5b506106c1600480360360608110156104f057600080fd5b810190808035906020019064010000000081111561050d57600080fd5b82018360208201111561051f57600080fd5b8035906020019184600183028401116401000000008311171561054157600080fd5b91908080601f016020809104026020016040519081016040528093929190818152602001838380828437600081840152601f19601f820116905080830192505050505050509192919290803590602001906401000000008111156105a457600080fd5b8201836020820111156105b657600080fd5b803590602001918460018302840111640100000000831117156105d857600080fd5b91908080601f016020809104026020016040519081016040528093929190818152602001838380828437600081840152601f19601f8201169050808301925050505050505091929192908035906020019064010000000081111561063b57600080fd5b82018360208201111561064d57600080fd5b8035906020019184600183028401116401000000008311171561066f57600080fd5b91908080601f016020809104026020016040519081016040528093929190818152602001838380828437600081840152601f19601f820116905080830192505050505050509192919290505050611004565b005b3480156106cf57600080fd5b50610789600480360360208110156106e657600080fd5b810190808035906020019064010000000081111561070357600080fd5b82018360208201111561071557600080fd5b8035906020019184600183028401116401000000008311171561073757600080fd5b91908080601f016020809104026020016040519081016040528093929190818152602001838380828437600081840152601f19601f8201169050808301925050505050505091929192905050506111c9565b005b34801561079757600080fd5b506108e8600480360360408110156107ae57600080fd5b81019080803590602001906401000000008111156107cb57600080fd5b8201836020820111156107dd57600080fd5b803590602001918460018302840111640100000000831117156107ff57600080fd5b91908080601f016020809104026020016040519081016040528093929190818152602001838380828437600081840152601f19601f8201169050808301925050505050505091929192908035906020019064010000000081111561086257600080fd5b82018360208201111561087457600080fd5b8035906020019184600183028401116401000000008311171561089657600080fd5b91908080601f016020809104026020016040519081016040528093929190818152602001838380828437600081840152601f19601f820116905080830192505050505050509192919290505050611220565b6040518080602001828103825283818151815260200191508051906020019080838360005b8381101561092857808201518184015260208101905061090d565b50505050905090810190601f1680156109555780820380516001836020036101000a031916815260200191505b509250505060405180910390f35b34801561096f57600080fd5b50610a296004803603602081101561098657600080fd5b81019080803590602001906401000000008111156109a357600080fd5b8201836020820111156109b557600080fd5b803590602001918460018302840111640100000000831117156109d757600080fd5b91908080601f016020809104026020016040519081016040528093929190818152602001838380828437600081840152601f19601f8201169050808301925050505050505091929192905050506112df565b005b348015610a3757600080fd5b50610af160048036036020811015610a4e57600080fd5b8101908080359060200190640100000000811115610a6b57600080fd5b820183602082011115610a7d57600080fd5b80359060200191846001830284011164010000000083111715610a9f57600080fd5b91908080601f016020809104026020016040519081016040528093929190818152602001838380828437600081840152601f19601f8201169050808301925050505050505091929192905050506114b2565b005b348015610aff57600080fd5b50610c5060048036036040811015610b1657600080fd5b8101908080359060200190640100000000811115610b3357600080fd5b820183602082011115610b4557600080fd5b80359060200191846001830284011164010000000083111715610b6757600080fd5b91908080601f016020809104026020016040519081016040528093929190818152602001838380828437600081840152601f19601f82011690508083019250505050505050919291929080359060200190640100000000811115610bca57600080fd5b820183602082011115610bdc57600080fd5b80359060200191846001830284011164010000000083111715610bfe57600080fd5b91908080601f016020809104026020016040519081016040528093929190818152602001838380828437600081840152601f19601f8201169050808301925050505050505091929192905050506116d1565b604051808273ffffffffffffffffffffffffffffffffffffffff1673ffffffffffffffffffffffffffffffffffffffff16815260200191505060405180910390f35b610cbe60048036036020811015610ca857600080fd5b81019080803590602001909291905050506117d6565b005b600082826040516020018083805190602001908083835b60208310610cfa5780518252602082019150602081019050602083039250610cd7565b6001836020036101000a03801982511681845116808217855250505050505090500182805190602001908083835b60208310610d4b5780518252602082019150602081019050602083039250610d28565b6001836020036101000a038019825116818451168082178552505050505050905001925050506040516020818303038152906040528051906020012060001c905092915050565b6060600360003373ffffffffffffffffffffffffffffffffffffffff1673ffffffffffffffffffffffffffffffffffffffff1681526020019081526020016000208054600181600116156101000203166002900480601f016020809104026020016040519081016040528092919081815260200182805460018160011615610100020316600290048015610e675780601f10610e3c57610100808354040283529160200191610e67565b820191906000526020600020905b815481529060010190602001808311610e4a57829003601f168201915b5050505050905090565b3360056000610e808585610cc0565b815260200190815260200160002060006101000a81548173ffffffffffffffffffffffffffffffffffffffff021916908373ffffffffffffffffffffffffffffffffffffffff1602179055505050565b6060600260008373ffffffffffffffffffffffffffffffffffffffff1673ffffffffffffffffffffffffffffffffffffffff16815260200190815260200160002060009054906101000a900460ff16610f2557fe5b600160008373ffffffffffffffffffffffffffffffffffffffff1673ffffffffffffffffffffffffffffffffffffffff1681526020019081526020016000208054600181600116156101000203166002900480601f016020809104026020016040519081016040528092919081815260200182805460018160011615610100020316600290048015610ff85780601f10610fcd57610100808354040283529160200191610ff8565b820191906000526020600020905b815481529060010190602001808311610fdb57829003601f168201915b50505050509050919050565b806040516020018082805190602001908083835b6020831061103b5780518252602082019150602081019050602083039250611018565b6001836020036101000a03801982511681845116808217855250505050505090500191505060405160208183030381529060405280519060200120600360003373ffffffffffffffffffffffffffffffffffffffff1673ffffffffffffffffffffffffffffffffffffffff16815260200190815260200160002060405160200180828054600181600116156101000203166002900480156111135780601f106110f1576101008083540402835291820191611113565b820191906000526020600020905b8154815290600101906020018083116110ff575b5050915050604051602081830303815290604052805190602001201461113857600080fd5b80600460006111478686610cc0565b81526020019081526020016000209080519060200190611168929190611cd6565b5033600560006111788686610cc0565b815260200190815260200160002060006101000a81548173ffffffffffffffffffffffffffffffffffffffff021916908373ffffffffffffffffffffffffffffffffffffffff160217905550505050565b80600360003373ffffffffffffffffffffffffffffffffffffffff1673ffffffffffffffffffffffffffffffffffffffff168152602001908152602001600020908051906020019061121c929190611cd6565b5050565b6060600460006112308585610cc0565b81526020019081526020016000208054600181600116156101000203166002900480601f0160208091040260200160405190810160405280929190818152602001828054600181600116156101000203166002900480156112d25780601f106112a7576101008083540402835291602001916112d2565b820191906000526020600020905b8154815290600101906020018083116112b557829003601f168201915b5050505050905092915050565b6001600260003373ffffffffffffffffffffffffffffffffffffffff1673ffffffffffffffffffffffffffffffffffffffff16815260200190815260200160002060006101000a81548160ff02191690831515021790555060606113786040518060400160405280600181526020017f0a0000000000000000000000000000000000000000000000000000000000000081525083611897565b905061145b600160003373ffffffffffffffffffffffffffffffffffffffff1673ffffffffffffffffffffffffffffffffffffffff1681526020019081526020016000208054600181600116156101000203166002900480601f0160208091040260200160405190810160405280929190818152602001828054600181600116156101000203166002900480156114505780601f1061142557610100808354040283529160200191611450565b820191906000526020600020905b81548152906001019060200180831161143357829003601f168201915b505050505082611897565b600160003373ffffffffffffffffffffffffffffffffffffffff1673ffffffffffffffffffffffffffffffffffffffff16815260200190815260200160002090805190602001906114ad929190611cd6565b505050565b600260003373ffffffffffffffffffffffffffffffffffffffff1673ffffffffffffffffffffffffffffffffffffffff16815260200190815260200160002060009054906101000a900460ff1661150557fe5b6115e681600160003373ffffffffffffffffffffffffffffffffffffffff1673ffffffffffffffffffffffffffffffffffffffff1681526020019081526020016000208054600181600116156101000203166002900480601f0160208091040260200160405190810160405280929190818152602001828054600181600116156101000203166002900480156115dc5780601f106115b1576101008083540402835291602001916115dc565b820191906000526020600020905b8154815290600101906020018083116115bf57829003601f168201915b505050505061195f565b6115ec57fe5b6116cd81600160003373ffffffffffffffffffffffffffffffffffffffff1673ffffffffffffffffffffffffffffffffffffffff1681526020019081526020016000208054600181600116156101000203166002900480601f0160208091040260200160405190810160405280929190818152602001828054600181600116156101000203166002900480156116c35780601f10611698576101008083540402835291602001916116c3565b820191906000526020600020905b8154815290600101906020018083116116a657829003601f168201915b5050505050611a52565b5050565b60006005600084846040516020018083805190602001908083835b6020831061170f57805182526020820191506020810190506020830392506116ec565b6001836020036101000a03801982511681845116808217855250505050505090500182805190602001908083835b60208310611760578051825260208201915060208101905060208303925061173d565b6001836020036101000a038019825116818451168082178552505050505050905001925050506040516020818303038152906040528051906020012060001c815260200190815260200160002060009054906101000a900473ffffffffffffffffffffffffffffffffffffffff16905092915050565b600260003373ffffffffffffffffffffffffffffffffffffffff1673ffffffffffffffffffffffffffffffffffffffff16815260200190815260200160002060009054906101000a900460ff1661182957fe5b7ff950957d2407bed19dc99b718b46b4ce6090c05589006dfb86fd22c34865b23e3382604051808373ffffffffffffffffffffffffffffffffffffffff1673ffffffffffffffffffffffffffffffffffffffff1681526020018281526020019250505060405180910390a150565b606082826040516020018083805190602001908083835b602083106118d157805182526020820191506020810190506020830392506118ae565b6001836020036101000a03801982511681845116808217855250505050505090500182805190602001908083835b6020831061192257805182526020820191506020810190506020830392506118ff565b6001836020036101000a03801982511681845116808217855250505050505090500192505050604051602081830303815290604052905092915050565b600060608390506060839050600080905060008090505b8351835103811015611a455760006001905060008090505b8551811015611a26578581815181106119a357fe5b602001015160f81c60f81b7effffffffffffffffffffffffffffffffffffffffffffffffffffffffffffff191685828501815181106119de57fe5b602001015160f81c60f81b7effffffffffffffffffffffffffffffffffffffffffffffffffffffffffffff191614611a195760009150611a26565b808060010191505061198e565b508015611a37576001925050611a45565b508080600101915050611976565b5080935050505092915050565b6060808390506060839050600080905060008090505b8351835103811015611b365760006001905060008090505b8551811015611b1857858181518110611a9557fe5b602001015160f81c60f81b7effffffffffffffffffffffffffffffffffffffffffffffffffffffffffffff19168582850181518110611ad057fe5b602001015160f81c60f81b7effffffffffffffffffffffffffffffffffffffffffffffffffffffffffffff191614611b0b5760009150611b18565b8080600101915050611a80565b508015611b285781925050611b36565b508080600101915050611a68565b50611b4385600083611c1a565b611b538685518551038551611c1a565b6040516020018083805190602001908083835b60208310611b895780518252602082019150602081019050602083039250611b66565b6001836020036101000a03801982511681845116808217855250505050505090500182805190602001908083835b60208310611bda5780518252602082019150602081019050602083039250611bb7565b6001836020036101000a03801982511681845116808217855250505050505090500192505050604051602081830303815290604052935050505092915050565b60608084905060608484036040519080825280601f01601f191660200182016040528015611c575781602001600182028038833980820191505090505b50905060008590505b84811015611cc957828181518110611c7457fe5b602001015160f81c60f81b8287830381518110611c8d57fe5b60200101907effffffffffffffffffffffffffffffffffffffffffffffffffffffffffffff1916908160001a9053508080600101915050611c60565b5080925050509392505050565b828054600181600116156101000203166002900490600052602060002090601f016020900481019282601f10611d1757805160ff1916838001178555611d45565b82800160010185558215611d45579182015b82811115611d44578251825591602001919060010190611d29565b5b509050611d529190611d56565b5090565b611d7891905b80821115611d74576000816000905550600101611d5c565b5090565b9056fea265627a7a72315820e077bd9d8c7dc1ac112f02e368568b74e24ea6d3b3d2a0df09f788632d47997064736f6c63430005100032",
  "source": "pragma solidity >=0.4.21 <0.7.0;\n\ncontract AccessLog {\n\n    address private owner;\n    mapping(address => string) files;\n    mapping(address => bool) private hasFile;\n    \n    mapping(address => string) publicKeys;\n    mapping(uint => string) publicKeysId;\n    mapping(uint => address) ethereum_address_dict;\n\n    // API 7\n    function setPublicKey (string memory _publicKey) public {\n        publicKeys[msg.sender] = _publicKey;\n    }\n    function setPublicKeyWithName (string memory username, string memory birthday, string memory _publicKey) public {\n        require(keccak256(abi.encodePacked(publicKeys[msg.sender])) == keccak256(abi.encodePacked(_publicKey)));\n        publicKeysId[getUserName(username, birthday)] = _publicKey;\n        // maybe can update here\n        ethereum_address_dict[getUserName(username, birthday)] = msg.sender;\n    }\n\n    // API 2\n    function getPublicKey() public view returns (string memory) {\n        return publicKeys[msg.sender];\n    }\n    /**\n    Gets the public key associated with a user\n    @param username the username of the specified user\n    @param birthday the birthday of the user user\n    @return the public key associated with <username, birthday>\n    */\n    function getPublicKeyWithName(string memory username, string memory birthday) public view returns (string memory) {\n        return publicKeysId[getUserName(username,birthday)];\n    }\n\n    // API 9: Get Ethereum address with User's name and birthday\n    function getEthereumAdress(string memory username, string memory birthday) public view returns (address) {\n         return ethereum_address_dict[uint(keccak256(abi.encodePacked(username,birthday)))];\n    }\n    function setEthereumAdress(string memory username, string memory birthday ) public {\n        ethereum_address_dict[getUserName(username,birthday)] = msg.sender;\n    }\n\n\n    // mapping(address)\n    event Log(\n        address caller,\n        uint file\n    );\n\n    constructor() public {\n        owner = msg.sender;\n    }\n\n    // Check if caller is owner of the contract\n    modifier isOwner() {\n        require(msg.sender == owner);\n        _;\n    }\n\n    function getUserName(string memory username, string memory birthday) public pure returns (uint)  {\n        return uint(keccak256(abi.encodePacked(username, birthday)));\n    }\n\n    // Adding a file to the list that is corresponding to the user\n    function addFilename(string memory fileName) public {\n        hasFile[msg.sender] = true;\n        string memory temp = append(\"\\n\", fileName);\n        files[msg.sender] = append(files[msg.sender], temp);\n    }\n\n    // Helper function to join two strings\n    function append(string memory a, string memory b) internal pure returns (string memory) {\n        return string(abi.encodePacked(a, b));\n    }\n\n    // API 1 & 8\n    // Getting a \"list\" of file names: a list string that is separated with new line character\n    function getFiles(address _address) public view returns (string memory) {\n        // Caller must have a file asscoiated with it\n        assert(hasFile[_address]);\n        return files[_address];\n    }\n\n    // When user tries to access a file, they must call this function to log their accesses\n    function log(uint file) public payable {\n        // Caller must have a file asscoiated with it\n        assert(hasFile[msg.sender]);\n        emit Log(msg.sender, file);\n    }\n\n    // Remove a file from that user\n    function removeFile(string memory filename) public view {\n        // Check if this user has anyfile at all\n        assert(hasFile[msg.sender]);\n\n        // Checks if this user contain the specified filename\n        assert(contains(filename, files[msg.sender]));\n\n        // Find the index of the substring, remove the substring\n        remove(filename, files[msg.sender]);\n\n    }\n\n    // Helper function to find a substring\n    function contains (string memory target, string memory base) internal pure returns (bool) {\n        bytes memory targetBytes = bytes (target);\n        bytes memory baseBytes = bytes (base);\n\n        bool found = false;\n\n        // Loop through the original string\n        for (uint i = 0; i < baseBytes.length - targetBytes.length; i++) {\n            bool flag = true;\n            // Check each character to see if they match\n            for (uint j = 0; j < targetBytes.length; j++){ \n                if (baseBytes [i + j] != targetBytes [j]) {\n                    flag = false;\n                    break;\n\t\t\t\t}\n\t\t\t}\n            if (flag) {\n                found = true;\n                break;\n            }\n        }\n        return found;\n    }\n\n    // Helper function to remove a filename from list of filenames, basically remove a substring from base string\n    function remove(string memory target, string memory base) internal pure returns (string memory) {\n        bytes memory targetBytes = bytes (target);\n        bytes memory baseBytes = bytes (base);\n\n\n        uint index = 0;\n        // Loop through the original string\n        for (uint i = 0; i < baseBytes.length - targetBytes.length; i++) {\n            bool flag = true;\n            // Check each character to see if they match\n            for (uint j = 0; j < targetBytes.length; j++){ \n                if (baseBytes [i + j] != targetBytes [j]) {\n                    flag = false;\n                    break;\n\t\t\t\t}\n\t\t\t}\n            if (flag) {\n                index = i;\n                break;\n            }\n        }\n        return string(abi.encodePacked(substring(base,0,index), substring(base,baseBytes.length - targetBytes.length, baseBytes.length )));\n \n    }\n    // Helper function for removing a file from list string\n    function substring(string memory str, uint startIndex, uint endIndex) internal pure returns (string memory) {\n        bytes memory strBytes = bytes(str);\n        bytes memory result = new bytes(endIndex-startIndex);\n        for(uint i = startIndex; i < endIndex; i++) {\n            result[i-startIndex] = strBytes[i];\n        }\n        return string(result);\n    }\n}\n",
  "sourcePath": "/mnt/c/Users/tangr/git/healthshare/blockchain/contracts/AccessLog.sol",
  "compiler": {
    "name": "solc",
    "version": "0.5.16+commit.9c3226ce.Emscripten.clang"
  },
  "schemaVersion": "3.0.23",
  "updatedAt": "2020-03-31T05:57:06.161Z",
  "devdoc": {
    "methods": {
      "getPublicKeyWithName(string,string)": {
        "params": {
          "birthday": "the birthday of the user user",
          "username": "the username of the specified user"
        },
        "return": "the public key associated with <username, birthday>"
      }
    }
  },
  "userdoc": {
    "methods": {
      "getPublicKeyWithName(string,string)": {
        "notice": "Gets the public key associated with a user"
      }
    }
  }
}