{
  "contractName": "AccessLog",
  "abi": [
    {
      "inputs": [],
      "payable": false,
      "stateMutability": "nonpayable",
      "type": "constructor"
    },
    {
      "anonymous": false,
      "inputs": [
        {
          "indexed": false,
          "internalType": "address",
          "name": "caller",
          "type": "address"
        },
        {
          "indexed": false,
          "internalType": "uint256",
          "name": "file",
          "type": "uint256"
        }
      ],
      "name": "Log",
      "type": "event"
    },
    {
      "constant": false,
      "inputs": [
        {
          "internalType": "string",
          "name": "_publicKey",
          "type": "string"
        }
      ],
      "name": "setPublicKey",
      "outputs": [],
      "payable": false,
      "stateMutability": "nonpayable",
      "type": "function"
    },
    {
      "constant": false,
      "inputs": [
        {
          "internalType": "string",
          "name": "username",
          "type": "string"
        },
        {
          "internalType": "string",
          "name": "birthday",
          "type": "string"
        },
        {
          "internalType": "string",
          "name": "_publicKey",
          "type": "string"
        }
      ],
      "name": "setPublicKeyWithName",
      "outputs": [],
      "payable": false,
      "stateMutability": "nonpayable",
      "type": "function"
    },
    {
      "constant": true,
      "inputs": [],
      "name": "getPublicKey",
      "outputs": [
        {
          "internalType": "string",
          "name": "",
          "type": "string"
        }
      ],
      "payable": false,
      "stateMutability": "view",
      "type": "function"
    },
    {
      "constant": true,
      "inputs": [
        {
          "internalType": "string",
          "name": "username",
          "type": "string"
        },
        {
          "internalType": "string",
          "name": "birthday",
          "type": "string"
        }
      ],
      "name": "getPublicKeyWithName",
      "outputs": [
        {
          "internalType": "string",
          "name": "",
          "type": "string"
        }
      ],
      "payable": false,
      "stateMutability": "view",
      "type": "function"
    },
    {
      "constant": true,
      "inputs": [
        {
          "internalType": "string",
          "name": "username",
          "type": "string"
        },
        {
          "internalType": "string",
          "name": "birthday",
          "type": "string"
        }
      ],
      "name": "getUserName",
      "outputs": [
        {
          "internalType": "uint256",
          "name": "",
          "type": "uint256"
        }
      ],
      "payable": false,
      "stateMutability": "pure",
      "type": "function"
    },
    {
      "constant": false,
      "inputs": [
        {
          "internalType": "string",
          "name": "fileName",
          "type": "string"
        }
      ],
      "name": "addFilename",
      "outputs": [],
      "payable": false,
      "stateMutability": "nonpayable",
      "type": "function"
    },
    {
      "constant": true,
      "inputs": [
        {
          "internalType": "address",
          "name": "_address",
          "type": "address"
        }
      ],
      "name": "getFiles",
      "outputs": [
        {
          "internalType": "string",
          "name": "",
          "type": "string"
        }
      ],
      "payable": false,
      "stateMutability": "view",
      "type": "function"
    },
    {
      "constant": false,
      "inputs": [
        {
          "internalType": "uint256",
          "name": "file",
          "type": "uint256"
        }
      ],
      "name": "log",
      "outputs": [],
      "payable": true,
      "stateMutability": "payable",
      "type": "function"
    },
    {
      "constant": true,
      "inputs": [
        {
          "internalType": "string",
          "name": "filename",
          "type": "string"
        }
      ],
      "name": "removeFile",
      "outputs": [],
      "payable": false,
      "stateMutability": "view",
      "type": "function"
    }
  ],
  "bytecode": "0x608060405234801561001057600080fd5b50336000806101000a81548173ffffffffffffffffffffffffffffffffffffffff021916908373ffffffffffffffffffffffffffffffffffffffff1602179055506118dd806100606000396000f3fe6080604052600436106100865760003560e01c80636f6fc077116100595780636f6fc0771461054e578063706c2ee214610616578063ee516066146107ee578063f1afe04d146108b6578063f82c50f11461097e57610086565b80630b7211dd1461008b5780632e334452146101fe578063433bf37b1461028e5780635285c03814610358575b600080fd5b34801561009757600080fd5b506101e8600480360360408110156100ae57600080fd5b81019080803590602001906401000000008111156100cb57600080fd5b8201836020820111156100dd57600080fd5b803590602001918460018302840111640100000000831117156100ff57600080fd5b91908080601f016020809104026020016040519081016040528093929190818152602001838380828437600081840152601f19601f8201169050808301925050505050505091929192908035906020019064010000000081111561016257600080fd5b82018360208201111561017457600080fd5b8035906020019184600183028401116401000000008311171561019657600080fd5b91908080601f016020809104026020016040519081016040528093929190818152602001838380828437600081840152601f19601f8201169050808301925050505050505091929192905050506109ac565b6040518082815260200191505060405180910390f35b34801561020a57600080fd5b50610213610a7e565b6040518080602001828103825283818151815260200191508051906020019080838360005b83811015610253578082015181840152602081019050610238565b50505050905090810190601f1680156102805780820380516001836020036101000a031916815260200191505b509250505060405180910390f35b34801561029a57600080fd5b506102dd600480360360208110156102b157600080fd5b81019080803573ffffffffffffffffffffffffffffffffffffffff169060200190929190505050610b5d565b6040518080602001828103825283818151815260200191508051906020019080838360005b8381101561031d578082015181840152602081019050610302565b50505050905090810190601f16801561034a5780820380516001836020036101000a031916815260200191505b509250505060405180910390f35b34801561036457600080fd5b5061054c6004803603606081101561037b57600080fd5b810190808035906020019064010000000081111561039857600080fd5b8201836020820111156103aa57600080fd5b803590602001918460018302840111640100000000831117156103cc57600080fd5b91908080601f016020809104026020016040519081016040528093929190818152602001838380828437600081840152601f19601f8201169050808301925050505050505091929192908035906020019064010000000081111561042f57600080fd5b82018360208201111561044157600080fd5b8035906020019184600183028401116401000000008311171561046357600080fd5b91908080601f016020809104026020016040519081016040528093929190818152602001838380828437600081840152601f19601f820116905080830192505050505050509192919290803590602001906401000000008111156104c657600080fd5b8201836020820111156104d857600080fd5b803590602001918460018302840111640100000000831117156104fa57600080fd5b91908080601f016020809104026020016040519081016040528093929190818152602001838380828437600081840152601f19601f820116905080830192505050505050509192919290505050610c91565b005b34801561055a57600080fd5b506106146004803603602081101561057157600080fd5b810190808035906020019064010000000081111561058e57600080fd5b8201836020820111156105a057600080fd5b803590602001918460018302840111640100000000831117156105c257600080fd5b91908080601f016020809104026020016040519081016040528093929190818152602001838380828437600081840152601f19601f820116905080830192505050505050509192919290505050610dfb565b005b34801561062257600080fd5b506107736004803603604081101561063957600080fd5b810190808035906020019064010000000081111561065657600080fd5b82018360208201111561066857600080fd5b8035906020019184600183028401116401000000008311171561068a57600080fd5b91908080601f016020809104026020016040519081016040528093929190818152602001838380828437600081840152601f19601f820116905080830192505050505050509192919290803590602001906401000000008111156106ed57600080fd5b8201836020820111156106ff57600080fd5b8035906020019184600183028401116401000000008311171561072157600080fd5b91908080601f016020809104026020016040519081016040528093929190818152602001838380828437600081840152601f19601f820116905080830192505050505050509192919290505050610e52565b6040518080602001828103825283818151815260200191508051906020019080838360005b838110156107b3578082015181840152602081019050610798565b50505050905090810190601f1680156107e05780820380516001836020036101000a031916815260200191505b509250505060405180910390f35b3480156107fa57600080fd5b506108b46004803603602081101561081157600080fd5b810190808035906020019064010000000081111561082e57600080fd5b82018360208201111561084057600080fd5b8035906020019184600183028401116401000000008311171561086257600080fd5b91908080601f016020809104026020016040519081016040528093929190818152602001838380828437600081840152601f19601f820116905080830192505050505050509192919290505050610f11565b005b3480156108c257600080fd5b5061097c600480360360208110156108d957600080fd5b81019080803590602001906401000000008111156108f657600080fd5b82018360208201111561090857600080fd5b8035906020019184600183028401116401000000008311171561092a57600080fd5b91908080601f016020809104026020016040519081016040528093929190818152602001838380828437600081840152601f19601f8201169050808301925050505050505091929192905050506110e4565b005b6109aa6004803603602081101561099457600080fd5b8101908080359060200190929190505050611303565b005b600082826040516020018083805190602001908083835b602083106109e657805182526020820191506020810190506020830392506109c3565b6001836020036101000a03801982511681845116808217855250505050505090500182805190602001908083835b60208310610a375780518252602082019150602081019050602083039250610a14565b6001836020036101000a038019825116818451168082178552505050505050905001925050506040516020818303038152906040528051906020012060001c905092915050565b6060600360003373ffffffffffffffffffffffffffffffffffffffff1673ffffffffffffffffffffffffffffffffffffffff1681526020019081526020016000208054600181600116156101000203166002900480601f016020809104026020016040519081016040528092919081815260200182805460018160011615610100020316600290048015610b535780601f10610b2857610100808354040283529160200191610b53565b820191906000526020600020905b815481529060010190602001808311610b3657829003601f168201915b5050505050905090565b6060600260008373ffffffffffffffffffffffffffffffffffffffff1673ffffffffffffffffffffffffffffffffffffffff16815260200190815260200160002060009054906101000a900460ff16610bb257fe5b600160008373ffffffffffffffffffffffffffffffffffffffff1673ffffffffffffffffffffffffffffffffffffffff1681526020019081526020016000208054600181600116156101000203166002900480601f016020809104026020016040519081016040528092919081815260200182805460018160011615610100020316600290048015610c855780601f10610c5a57610100808354040283529160200191610c85565b820191906000526020600020905b815481529060010190602001808311610c6857829003601f168201915b50505050509050919050565b806040516020018082805190602001908083835b60208310610cc85780518252602082019150602081019050602083039250610ca5565b6001836020036101000a03801982511681845116808217855250505050505090500191505060405160208183030381529060405280519060200120600360003373ffffffffffffffffffffffffffffffffffffffff1673ffffffffffffffffffffffffffffffffffffffff1681526020019081526020016000206040516020018082805460018160011615610100020316600290048015610da05780601f10610d7e576101008083540402835291820191610da0565b820191906000526020600020905b815481529060010190602001808311610d8c575b50509150506040516020818303038152906040528051906020012014610dc557600080fd5b8060046000610dd486866109ac565b81526020019081526020016000209080519060200190610df5929190611803565b50505050565b80600360003373ffffffffffffffffffffffffffffffffffffffff1673ffffffffffffffffffffffffffffffffffffffff1681526020019081526020016000209080519060200190610e4e929190611803565b5050565b606060046000610e6285856109ac565b81526020019081526020016000208054600181600116156101000203166002900480601f016020809104026020016040519081016040528092919081815260200182805460018160011615610100020316600290048015610f045780601f10610ed957610100808354040283529160200191610f04565b820191906000526020600020905b815481529060010190602001808311610ee757829003601f168201915b5050505050905092915050565b6001600260003373ffffffffffffffffffffffffffffffffffffffff1673ffffffffffffffffffffffffffffffffffffffff16815260200190815260200160002060006101000a81548160ff0219169083151502179055506060610faa6040518060400160405280600181526020017f0a00000000000000000000000000000000000000000000000000000000000000815250836113c4565b905061108d600160003373ffffffffffffffffffffffffffffffffffffffff1673ffffffffffffffffffffffffffffffffffffffff1681526020019081526020016000208054600181600116156101000203166002900480601f0160208091040260200160405190810160405280929190818152602001828054600181600116156101000203166002900480156110825780601f1061105757610100808354040283529160200191611082565b820191906000526020600020905b81548152906001019060200180831161106557829003601f168201915b5050505050826113c4565b600160003373ffffffffffffffffffffffffffffffffffffffff1673ffffffffffffffffffffffffffffffffffffffff16815260200190815260200160002090805190602001906110df929190611803565b505050565b600260003373ffffffffffffffffffffffffffffffffffffffff1673ffffffffffffffffffffffffffffffffffffffff16815260200190815260200160002060009054906101000a900460ff1661113757fe5b61121881600160003373ffffffffffffffffffffffffffffffffffffffff1673ffffffffffffffffffffffffffffffffffffffff1681526020019081526020016000208054600181600116156101000203166002900480601f01602080910402602001604051908101604052809291908181526020018280546001816001161561010002031660029004801561120e5780601f106111e35761010080835404028352916020019161120e565b820191906000526020600020905b8154815290600101906020018083116111f157829003601f168201915b505050505061148c565b61121e57fe5b6112ff81600160003373ffffffffffffffffffffffffffffffffffffffff1673ffffffffffffffffffffffffffffffffffffffff1681526020019081526020016000208054600181600116156101000203166002900480601f0160208091040260200160405190810160405280929190818152602001828054600181600116156101000203166002900480156112f55780601f106112ca576101008083540402835291602001916112f5565b820191906000526020600020905b8154815290600101906020018083116112d857829003601f168201915b505050505061157f565b5050565b600260003373ffffffffffffffffffffffffffffffffffffffff1673ffffffffffffffffffffffffffffffffffffffff16815260200190815260200160002060009054906101000a900460ff1661135657fe5b7ff950957d2407bed19dc99b718b46b4ce6090c05589006dfb86fd22c34865b23e3382604051808373ffffffffffffffffffffffffffffffffffffffff1673ffffffffffffffffffffffffffffffffffffffff1681526020018281526020019250505060405180910390a150565b606082826040516020018083805190602001908083835b602083106113fe57805182526020820191506020810190506020830392506113db565b6001836020036101000a03801982511681845116808217855250505050505090500182805190602001908083835b6020831061144f578051825260208201915060208101905060208303925061142c565b6001836020036101000a03801982511681845116808217855250505050505090500192505050604051602081830303815290604052905092915050565b600060608390506060839050600080905060008090505b83518351038110156115725760006001905060008090505b8551811015611553578581815181106114d057fe5b602001015160f81c60f81b7effffffffffffffffffffffffffffffffffffffffffffffffffffffffffffff1916858285018151811061150b57fe5b602001015160f81c60f81b7effffffffffffffffffffffffffffffffffffffffffffffffffffffffffffff1916146115465760009150611553565b80806001019150506114bb565b508015611564576001925050611572565b5080806001019150506114a3565b5080935050505092915050565b6060808390506060839050600080905060008090505b83518351038110156116635760006001905060008090505b8551811015611645578581815181106115c257fe5b602001015160f81c60f81b7effffffffffffffffffffffffffffffffffffffffffffffffffffffffffffff191685828501815181106115fd57fe5b602001015160f81c60f81b7effffffffffffffffffffffffffffffffffffffffffffffffffffffffffffff1916146116385760009150611645565b80806001019150506115ad565b5080156116555781925050611663565b508080600101915050611595565b5061167085600083611747565b6116808685518551038551611747565b6040516020018083805190602001908083835b602083106116b65780518252602082019150602081019050602083039250611693565b6001836020036101000a03801982511681845116808217855250505050505090500182805190602001908083835b6020831061170757805182526020820191506020810190506020830392506116e4565b6001836020036101000a03801982511681845116808217855250505050505090500192505050604051602081830303815290604052935050505092915050565b60608084905060608484036040519080825280601f01601f1916602001820160405280156117845781602001600182028038833980820191505090505b50905060008590505b848110156117f6578281815181106117a157fe5b602001015160f81c60f81b82878303815181106117ba57fe5b60200101907effffffffffffffffffffffffffffffffffffffffffffffffffffffffffffff1916908160001a905350808060010191505061178d565b5080925050509392505050565b828054600181600116156101000203166002900490600052602060002090601f016020900481019282601f1061184457805160ff1916838001178555611872565b82800160010185558215611872579182015b82811115611871578251825591602001919060010190611856565b5b50905061187f9190611883565b5090565b6118a591905b808211156118a1576000816000905550600101611889565b5090565b9056fea265627a7a7231582093ecb617a2486088b341d5454c4972cf9bfd2967064c295553262f3a642672c064736f6c63430005100032",
  "source": "pragma solidity >=0.4.21 <0.7.0;\n\ncontract AccessLog {\n\n    address private owner;\n    mapping(address => string) files;\n    mapping(address => bool) private hasFile;\n    \n    mapping(address => string) publicKeys;\n    mapping(uint => string) publicKeysId;\n    function setPublicKey (string memory _publicKey) public {\n        publicKeys[msg.sender] = _publicKey;\n    }\n    function setPublicKeyWithName (string memory username, string memory birthday, string memory _publicKey) public {\n        require(keccak256(abi.encodePacked(publicKeys[msg.sender])) == keccak256(abi.encodePacked(_publicKey)));\n        publicKeysId[getUserName(username, birthday)] = _publicKey;\n    }\n\n    // API 2\n    function getPublicKey() public view returns (string memory) {\n        return publicKeys[msg.sender];\n    }\n    /**\n    Gets the public key associated with a user\n    @param username the username of the specified user\n    @param birthday the birthday of the user user\n    @return the public key associated with <username, birthday>\n    */\n    function getPublicKeyWithName(string memory username, string memory birthday) public view returns (string memory) {\n        return publicKeysId[getUserName(username,birthday)];\n    }\n\n\n    // mapping(address)\n    event Log(\n        address caller,\n        uint file\n    );\n\n    constructor() public {\n        owner = msg.sender;\n    }\n\n    // Check if caller is owner of the contract\n    modifier isOwner() {\n        require(msg.sender == owner);\n        _;\n    }\n\n    function getUserName(string memory username, string memory birthday) public pure returns (uint)  {\n        return uint(keccak256(abi.encodePacked(username, birthday)));\n    }\n\n    // Adding a file to the list that is corresponding to the user\n    function addFilename(string memory fileName) public {\n        hasFile[msg.sender] = true;\n        string memory temp = append(\"\\n\", fileName);\n        files[msg.sender] = append(files[msg.sender], temp);\n    }\n\n    // Helper function to join two strings\n    function append(string memory a, string memory b) internal pure returns (string memory) {\n        return string(abi.encodePacked(a, b));\n    }\n\n    // API 1\n    // Getting a \"list\" of file names: a list string that is separated with new line character\n    function getFiles(address _address) public view returns (string memory) {\n        // Caller must have a file asscoiated with it\n        assert(hasFile[_address]);\n        return files[_address];\n    }\n\n    // When user tries to access a file, they must call this function to log their accesses\n    function log(uint file) public payable {\n        // Caller must have a file asscoiated with it\n        assert(hasFile[msg.sender]);\n        emit Log(msg.sender, file);\n    }\n\n    // Remove a file from that user\n    function removeFile(string memory filename) public view {\n        \n        // Check if this user has anyfile at all\n        assert(hasFile[msg.sender]);\n\n        // Checks if this user contain the specified filename\n        assert(contains(filename, files[msg.sender]));\n\n        // Find the index of the substring, remove the substring\n        remove(filename, files[msg.sender]);\n\n    }\n\n    // Helper function to find a substring\n    function contains (string memory target, string memory base) internal pure returns (bool) {\n        bytes memory targetBytes = bytes (target);\n        bytes memory baseBytes = bytes (base);\n\n        bool found = false;\n\n        // Loop through the original string\n        for (uint i = 0; i < baseBytes.length - targetBytes.length; i++) {\n            bool flag = true;\n            // Check each character to see if they match\n            for (uint j = 0; j < targetBytes.length; j++){ \n                if (baseBytes [i + j] != targetBytes [j]) {\n                    flag = false;\n                    break;\n\t\t\t\t}\n\t\t\t}\n            if (flag) {\n                found = true;\n                break;\n            }\n        }\n        return found;\n    }\n\n    // Helper function to remove a filename from list of filenames, basically remove a substring from base string\n    function remove(string memory target, string memory base) internal pure returns (string memory) {\n        bytes memory targetBytes = bytes (target);\n        bytes memory baseBytes = bytes (base);\n\n\n        uint index = 0;\n        // Loop through the original string\n        for (uint i = 0; i < baseBytes.length - targetBytes.length; i++) {\n            bool flag = true;\n            // Check each character to see if they match\n            for (uint j = 0; j < targetBytes.length; j++){ \n                if (baseBytes [i + j] != targetBytes [j]) {\n                    flag = false;\n                    break;\n\t\t\t\t}\n\t\t\t}\n            if (flag) {\n                index = i;\n                break;\n            }\n        }\n        return string(abi.encodePacked(substring(base,0,index), substring(base,baseBytes.length - targetBytes.length, baseBytes.length )));\n \n    }\n    // Helper function for removing a file from list string\n    function substring(string memory str, uint startIndex, uint endIndex) internal pure returns (string memory) {\n        bytes memory strBytes = bytes(str);\n        bytes memory result = new bytes(endIndex-startIndex);\n        for(uint i = startIndex; i < endIndex; i++) {\n            result[i-startIndex] = strBytes[i];\n        }\n        return string(result);\n    }\n}\n",
  "sourcePath": "/home/navieh/mypj/healthshare/blockchain/contracts/AccessLog.sol",
  "compiler": {
    "name": "solc",
    "version": "0.5.16+commit.9c3226ce.Emscripten.clang"
  },
  "schemaVersion": "3.0.23",
  "updatedAt": "2020-03-31T03:31:16.716Z",
  "networkType": "ethereum",
  "devdoc": {
    "methods": {
      "getPublicKeyWithName(string,string)": {
        "params": {
          "birthday": "the birthday of the user user",
          "username": "the username of the specified user"
        },
        "return": "the public key associated with <username, birthday>"
      }
    }
  },
  "userdoc": {
    "methods": {
      "getPublicKeyWithName(string,string)": {
        "notice": "Gets the public key associated with a user"
      }
    }
  }
}